{
  "_format": "hh-sol-artifact-1",
  "contractName": "Sp33dFun",
  "sourceName": "contracts/Sp33dFun.sol",
  "abi": [
    {
      "inputs": [],
      "name": "EnforcedPause",
      "type": "error"
    },
    {
      "inputs": [],
      "name": "ExpectedPause",
      "type": "error"
    },
    {
      "inputs": [],
      "name": "FailedCall",
      "type": "error"
    },
    {
      "inputs": [
        {
          "internalType": "uint256",
          "name": "balance",
          "type": "uint256"
        },
        {
          "internalType": "uint256",
          "name": "needed",
          "type": "uint256"
        }
      ],
      "name": "InsufficientBalance",
      "type": "error"
    },
    {
      "inputs": [],
      "name": "InvalidInitialization",
      "type": "error"
    },
    {
      "inputs": [],
      "name": "InvalidParams",
      "type": "error"
    },
    {
      "inputs": [],
      "name": "NotInitializing",
      "type": "error"
    },
    {
      "inputs": [],
      "name": "OwnershipTransferFailed",
      "type": "error"
    },
    {
      "anonymous": false,
      "inputs": [
        {
          "indexed": false,
          "internalType": "address",
          "name": "owner",
          "type": "address"
        },
        {
          "indexed": false,
          "internalType": "address",
          "name": "token0",
          "type": "address"
        },
        {
          "indexed": false,
          "internalType": "address",
          "name": "token1",
          "type": "address"
        },
        {
          "indexed": false,
          "internalType": "address",
          "name": "pair",
          "type": "address"
        }
      ],
      "name": "HandleLiquidity",
      "type": "event"
    },
    {
      "anonymous": false,
      "inputs": [
        {
          "indexed": false,
          "internalType": "uint64",
          "name": "version",
          "type": "uint64"
        }
      ],
      "name": "Initialized",
      "type": "event"
    },
    {
      "anonymous": false,
      "inputs": [
        {
          "indexed": false,
          "internalType": "address",
          "name": "owner",
          "type": "address"
        },
        {
          "indexed": false,
          "internalType": "string",
          "name": "name",
          "type": "string"
        },
        {
          "indexed": false,
          "internalType": "string",
          "name": "symbol",
          "type": "string"
        },
        {
          "indexed": false,
          "internalType": "string",
          "name": "uri",
          "type": "string"
        },
        {
          "indexed": false,
          "internalType": "uint256",
          "name": "maxSupply",
          "type": "uint256"
        },
        {
          "indexed": false,
          "internalType": "address",
          "name": "token",
          "type": "address"
        }
      ],
      "name": "Launched",
      "type": "event"
    },
    {
      "anonymous": false,
      "inputs": [
        {
          "indexed": true,
          "internalType": "address",
          "name": "previousOwner",
          "type": "address"
        },
        {
          "indexed": true,
          "internalType": "address",
          "name": "newOwner",
          "type": "address"
        }
      ],
      "name": "OwnershipTransferred",
      "type": "event"
    },
    {
      "anonymous": false,
      "inputs": [
        {
          "indexed": false,
          "internalType": "address",
          "name": "account",
          "type": "address"
        }
      ],
      "name": "Paused",
      "type": "event"
    },
    {
      "anonymous": false,
      "inputs": [
        {
          "indexed": false,
          "internalType": "address",
          "name": "account",
          "type": "address"
        }
      ],
      "name": "Unpaused",
      "type": "event"
    },
    {
      "inputs": [],
      "name": "MAX_SUPPLY",
      "outputs": [
        {
          "internalType": "uint256",
          "name": "",
          "type": "uint256"
        }
      ],
      "stateMutability": "view",
      "type": "function"
    },
    {
      "inputs": [],
      "name": "allPairsLength",
      "outputs": [
        {
          "internalType": "uint256",
          "name": "",
          "type": "uint256"
        }
      ],
      "stateMutability": "view",
      "type": "function"
    },
    {
      "inputs": [],
      "name": "claimLaunchTaxes",
      "outputs": [],
      "stateMutability": "nonpayable",
      "type": "function"
    },
    {
      "inputs": [],
      "name": "getAllToken",
      "outputs": [
        {
          "components": [
            {
              "internalType": "address",
              "name": "instance",
              "type": "address"
            },
            {
              "internalType": "address",
              "name": "owner",
              "type": "address"
            },
            {
              "internalType": "string",
              "name": "name",
              "type": "string"
            },
            {
              "internalType": "string",
              "name": "symbol",
              "type": "string"
            },
            {
              "internalType": "string",
              "name": "uri",
              "type": "string"
            },
            {
              "internalType": "uint256",
              "name": "maxSupply",
              "type": "uint256"
            }
          ],
          "internalType": "struct Sp33dFun.Token[]",
          "name": "",
          "type": "tuple[]"
        }
      ],
      "stateMutability": "view",
      "type": "function"
    },
    {
      "inputs": [
        {
          "internalType": "uint256",
          "name": "id",
          "type": "uint256"
        }
      ],
      "name": "getToken",
      "outputs": [
        {
          "components": [
            {
              "internalType": "address",
              "name": "instance",
              "type": "address"
            },
            {
              "internalType": "address",
              "name": "owner",
              "type": "address"
            },
            {
              "internalType": "string",
              "name": "name",
              "type": "string"
            },
            {
              "internalType": "string",
              "name": "symbol",
              "type": "string"
            },
            {
              "internalType": "string",
              "name": "uri",
              "type": "string"
            },
            {
              "internalType": "uint256",
              "name": "maxSupply",
              "type": "uint256"
            }
          ],
          "internalType": "struct Sp33dFun.Token",
          "name": "",
          "type": "tuple"
        }
      ],
      "stateMutability": "view",
      "type": "function"
    },
    {
      "inputs": [
        {
          "internalType": "address",
          "name": "tokenOwner",
          "type": "address"
        },
        {
          "internalType": "string",
          "name": "name",
          "type": "string"
        },
        {
          "internalType": "string",
          "name": "symbol",
          "type": "string"
        },
        {
          "internalType": "string",
          "name": "uri",
          "type": "string"
        }
      ],
      "name": "launch",
      "outputs": [],
      "stateMutability": "payable",
      "type": "function"
    },
    {
      "inputs": [
        {
          "internalType": "address",
          "name": "tokenOwner",
          "type": "address"
        },
        {
          "internalType": "address",
          "name": "token",
          "type": "address"
        }
      ],
      "name": "launchPermissioned",
      "outputs": [],
      "stateMutability": "nonpayable",
      "type": "function"
    },
    {
      "inputs": [],
      "name": "owner",
      "outputs": [
        {
          "internalType": "address",
          "name": "",
          "type": "address"
        }
      ],
      "stateMutability": "view",
      "type": "function"
    },
    {
      "inputs": [],
      "name": "paused",
      "outputs": [
        {
          "internalType": "bool",
          "name": "",
          "type": "bool"
        }
      ],
      "stateMutability": "view",
      "type": "function"
    },
    {
      "inputs": [],
      "name": "renounceOwnership",
      "outputs": [],
      "stateMutability": "nonpayable",
      "type": "function"
    },
    {
      "inputs": [],
      "name": "togglePause",
      "outputs": [],
      "stateMutability": "nonpayable",
      "type": "function"
    },
    {
      "inputs": [
        {
          "internalType": "address",
          "name": "",
          "type": "address"
        }
      ],
      "name": "tokenIndexes",
      "outputs": [
        {
          "internalType": "uint256",
          "name": "",
          "type": "uint256"
        }
      ],
      "stateMutability": "view",
      "type": "function"
    },
    {
      "inputs": [
        {
          "internalType": "address",
          "name": "newOwner",
          "type": "address"
        }
      ],
      "name": "transferOwnership",
      "outputs": [],
      "stateMutability": "nonpayable",
      "type": "function"
    },
    {
      "inputs": [
        {
          "internalType": "uint256",
          "name": "id",
          "type": "uint256"
        },
        {
          "internalType": "address",
          "name": "newOwner",
          "type": "address"
        }
      ],
      "name": "transferTokenOwnership",
      "outputs": [],
      "stateMutability": "nonpayable",
      "type": "function"
    },
    {
      "inputs": [
        {
          "internalType": "uint256",
          "name": "_maxSupply",
          "type": "uint256"
        }
      ],
      "name": "updateMaxSupply",
      "outputs": [],
      "stateMutability": "nonpayable",
      "type": "function"
    },
    {
      "stateMutability": "payable",
      "type": "receive"
    }
  ],
  "bytecode": "0x60806040526b033b2e3c9fd0803ce8000000600355348015601f57600080fd5b506000339050806000806101000a81548173ffffffffffffffffffffffffffffffffffffffff021916908373ffffffffffffffffffffffffffffffffffffffff1602179055508073ffffffffffffffffffffffffffffffffffffffff16600073ffffffffffffffffffffffffffffffffffffffff167f8be0079c531659141344cd1fd0a4f28419497f9722a3daafe3b4186f6b6457e060405160405180910390a3506146a0806100d06000396000f3fe6080604052600436106100ec5760003560e01c8063c4ae31681161008a578063e904836111610059578063e9048361146102bc578063e9cf64e6146102d3578063f103b433146102fc578063f2fde38b14610325576100f3565b8063c4ae316814610223578063cb2df3111461023a578063e170604514610263578063e4b50cb81461027f576100f3565b80635c975abb116100c65780635c975abb1461018b578063715018a6146101b657806385e3c1d4146101cd5780638da5cb5b146101f8576100f3565b806304bc3b1c146100f857806332cb6b0c14610135578063574f2ba314610160576100f3565b366100f357005b600080fd5b34801561010457600080fd5b5061011f600480360381019061011a9190611fab565b61034e565b60405161012c9190611ff1565b60405180910390f35b34801561014157600080fd5b5061014a610366565b6040516101579190611ff1565b60405180910390f35b34801561016c57600080fd5b5061017561036c565b6040516101829190611ff1565b60405180910390f35b34801561019757600080fd5b506101a0610379565b6040516101ad9190612027565b60405180910390f35b3480156101c257600080fd5b506101cb61039e565b005b3480156101d957600080fd5b506101e26104ea565b6040516101ef9190612249565b60405180910390f35b34801561020457600080fd5b5061020d6107b5565b60405161021a919061227a565b60405180910390f35b34801561022f57600080fd5b506102386107de565b005b34801561024657600080fd5b50610261600480360381019061025c9190612295565b610891565b005b61027d6004803603810190610278919061240a565b610ea6565b005b34801561028b57600080fd5b506102a660048036038101906102a191906124f1565b61115e565b6040516102b391906125b5565b60405180910390f35b3480156102c857600080fd5b506102d16114a3565b005b3480156102df57600080fd5b506102fa60048036038101906102f591906125d7565b611563565b005b34801561030857600080fd5b50610323600480360381019061031e91906124f1565b6116b9565b005b34801561033157600080fd5b5061034c60048036038101906103479190611fab565b611751565b005b60026020528060005260406000206000915090505481565b60035481565b6000600180549050905090565b60008061038461190b565b90508060000160009054906101000a900460ff1691505090565b3373ffffffffffffffffffffffffffffffffffffffff1660008054906101000a900473ffffffffffffffffffffffffffffffffffffffff1673ffffffffffffffffffffffffffffffffffffffff161461042c576040517f08c379a000000000000000000000000000000000000000000000000000000000815260040161042390612674565b60405180910390fd5b600073ffffffffffffffffffffffffffffffffffffffff1660008054906101000a900473ffffffffffffffffffffffffffffffffffffffff1673ffffffffffffffffffffffffffffffffffffffff167f8be0079c531659141344cd1fd0a4f28419497f9722a3daafe3b4186f6b6457e060405160405180910390a360008060006101000a81548173ffffffffffffffffffffffffffffffffffffffff021916908373ffffffffffffffffffffffffffffffffffffffff160217905550565b60606001805480602002602001604051908101604052809291908181526020016000905b828210156107ac57838290600052602060002090600602016040518060c00160405290816000820160009054906101000a900473ffffffffffffffffffffffffffffffffffffffff1673ffffffffffffffffffffffffffffffffffffffff1673ffffffffffffffffffffffffffffffffffffffff1681526020016001820160009054906101000a900473ffffffffffffffffffffffffffffffffffffffff1673ffffffffffffffffffffffffffffffffffffffff1673ffffffffffffffffffffffffffffffffffffffff1681526020016002820180546105ed906126c3565b80601f0160208091040260200160405190810160405280929190818152602001828054610619906126c3565b80156106665780601f1061063b57610100808354040283529160200191610666565b820191906000526020600020905b81548152906001019060200180831161064957829003601f168201915b5050505050815260200160038201805461067f906126c3565b80601f01602080910402602001604051908101604052809291908181526020018280546106ab906126c3565b80156106f85780601f106106cd576101008083540402835291602001916106f8565b820191906000526020600020905b8154815290600101906020018083116106db57829003601f168201915b50505050508152602001600482018054610711906126c3565b80601f016020809104026020016040519081016040528092919081815260200182805461073d906126c3565b801561078a5780601f1061075f5761010080835404028352916020019161078a565b820191906000526020600020905b81548152906001019060200180831161076d57829003601f168201915b505050505081526020016005820154815250508152602001906001019061050e565b50505050905090565b60008060009054906101000a900473ffffffffffffffffffffffffffffffffffffffff16905090565b3373ffffffffffffffffffffffffffffffffffffffff1660008054906101000a900473ffffffffffffffffffffffffffffffffffffffff1673ffffffffffffffffffffffffffffffffffffffff161461086c576040517f08c379a000000000000000000000000000000000000000000000000000000000815260040161086390612674565b60405180910390fd5b610874610379565b1561088657610881611933565b61088f565b61088e6119a5565b5b565b3373ffffffffffffffffffffffffffffffffffffffff1660008054906101000a900473ffffffffffffffffffffffffffffffffffffffff1673ffffffffffffffffffffffffffffffffffffffff161461091f576040517f08c379a000000000000000000000000000000000000000000000000000000000815260040161091690612674565b60405180910390fd5b60016040518060c001604052808373ffffffffffffffffffffffffffffffffffffffff1681526020018473ffffffffffffffffffffffffffffffffffffffff1681526020018373ffffffffffffffffffffffffffffffffffffffff166306fdde036040518163ffffffff1660e01b8152600401600060405180830381865afa1580156109af573d6000803e3d6000fd5b505050506040513d6000823e3d601f19601f820116820180604052508101906109d89190612764565b81526020018373ffffffffffffffffffffffffffffffffffffffff166395d89b416040518163ffffffff1660e01b8152600401600060405180830381865afa158015610a28573d6000803e3d6000fd5b505050506040513d6000823e3d601f19601f82011682018060405250810190610a519190612764565b81526020018373ffffffffffffffffffffffffffffffffffffffff1663eac989f86040518163ffffffff1660e01b8152600401600060405180830381865afa158015610aa1573d6000803e3d6000fd5b505050506040513d6000823e3d601f19601f82011682018060405250810190610aca9190612764565b81526020018373ffffffffffffffffffffffffffffffffffffffff166318160ddd6040518163ffffffff1660e01b8152600401602060405180830381865afa158015610b1a573d6000803e3d6000fd5b505050506040513d601f19601f82011682018060405250810190610b3e91906127c2565b815250908060018154018082558091505060019003906000526020600020906006020160009091909190915060008201518160000160006101000a81548173ffffffffffffffffffffffffffffffffffffffff021916908373ffffffffffffffffffffffffffffffffffffffff16021790555060208201518160010160006101000a81548173ffffffffffffffffffffffffffffffffffffffff021916908373ffffffffffffffffffffffffffffffffffffffff1602179055506040820151816002019081610c0d919061299b565b506060820151816003019081610c23919061299b565b506080820151816004019081610c39919061299b565b5060a08201518160050155505060018080549050610c579190612a9c565b600260008373ffffffffffffffffffffffffffffffffffffffff1673ffffffffffffffffffffffffffffffffffffffff168152602001908152602001600020819055507f5817009675d028c198e1f662814eee896d46b66f4c0085802b7996071590667d828273ffffffffffffffffffffffffffffffffffffffff166306fdde036040518163ffffffff1660e01b8152600401600060405180830381865afa158015610d07573d6000803e3d6000fd5b505050506040513d6000823e3d601f19601f82011682018060405250810190610d309190612764565b8373ffffffffffffffffffffffffffffffffffffffff166395d89b416040518163ffffffff1660e01b8152600401600060405180830381865afa158015610d7b573d6000803e3d6000fd5b505050506040513d6000823e3d601f19601f82011682018060405250810190610da49190612764565b8473ffffffffffffffffffffffffffffffffffffffff1663eac989f86040518163ffffffff1660e01b8152600401600060405180830381865afa158015610def573d6000803e3d6000fd5b505050506040513d6000823e3d601f19601f82011682018060405250810190610e189190612764565b8573ffffffffffffffffffffffffffffffffffffffff166318160ddd6040518163ffffffff1660e01b8152600401602060405180830381865afa158015610e63573d6000803e3d6000fd5b505050506040513d601f19601f82011682018060405250810190610e8791906127c2565b86604051610e9a96959493929190612b09565b60405180910390a15050565b610eae611a17565b6000604051610ebc90611eca565b604051809103906000f080158015610ed8573d6000803e3d6000fd5b5090508073ffffffffffffffffffffffffffffffffffffffff16631c5d2b498585856003546040518563ffffffff1660e01b8152600401610f1c9493929190612b7f565b600060405180830381600087803b158015610f3657600080fd5b505af1158015610f4a573d6000803e3d6000fd5b505050506000349050610f5d8282611a58565b60016040518060c001604052808473ffffffffffffffffffffffffffffffffffffffff1681526020018873ffffffffffffffffffffffffffffffffffffffff168152602001878152602001868152602001858152602001600354815250908060018154018082558091505060019003906000526020600020906006020160009091909190915060008201518160000160006101000a81548173ffffffffffffffffffffffffffffffffffffffff021916908373ffffffffffffffffffffffffffffffffffffffff16021790555060208201518160010160006101000a81548173ffffffffffffffffffffffffffffffffffffffff021916908373ffffffffffffffffffffffffffffffffffffffff1602179055506040820151816002019081611086919061299b565b50606082015181600301908161109c919061299b565b5060808201518160040190816110b2919061299b565b5060a082015181600501555050600180805490506110d09190612a9c565b600260008473ffffffffffffffffffffffffffffffffffffffff1673ffffffffffffffffffffffffffffffffffffffff168152602001908152602001600020819055507f5817009675d028c198e1f662814eee896d46b66f4c0085802b7996071590667d868686866003548760405161114e96959493929190612b09565b60405180910390a1505050505050565b611166611ed7565b6001805490508210611202576040518060c00160405280600073ffffffffffffffffffffffffffffffffffffffff168152602001600073ffffffffffffffffffffffffffffffffffffffff1681526020016040518060200160405280600081525081526020016040518060200160405280600081525081526020016040518060200160405280600081525081526020016000815250905061149e565b6001828154811061121657611215612bd9565b5b90600052602060002090600602016040518060c00160405290816000820160009054906101000a900473ffffffffffffffffffffffffffffffffffffffff1673ffffffffffffffffffffffffffffffffffffffff1673ffffffffffffffffffffffffffffffffffffffff1681526020016001820160009054906101000a900473ffffffffffffffffffffffffffffffffffffffff1673ffffffffffffffffffffffffffffffffffffffff1673ffffffffffffffffffffffffffffffffffffffff1681526020016002820180546112eb906126c3565b80601f0160208091040260200160405190810160405280929190818152602001828054611317906126c3565b80156113645780601f1061133957610100808354040283529160200191611364565b820191906000526020600020905b81548152906001019060200180831161134757829003601f168201915b5050505050815260200160038201805461137d906126c3565b80601f01602080910402602001604051908101604052809291908181526020018280546113a9906126c3565b80156113f65780601f106113cb576101008083540402835291602001916113f6565b820191906000526020600020905b8154815290600101906020018083116113d957829003601f168201915b5050505050815260200160048201805461140f906126c3565b80601f016020809104026020016040519081016040528092919081815260200182805461143b906126c3565b80156114885780601f1061145d57610100808354040283529160200191611488565b820191906000526020600020905b81548152906001019060200180831161146b57829003601f168201915b5050505050815260200160058201548152505090505b919050565b3373ffffffffffffffffffffffffffffffffffffffff1660008054906101000a900473ffffffffffffffffffffffffffffffffffffffff1673ffffffffffffffffffffffffffffffffffffffff1614611531576040517f08c379a000000000000000000000000000000000000000000000000000000000815260040161152890612674565b60405180910390fd5b6115614761153d6107b5565b73ffffffffffffffffffffffffffffffffffffffff16611d9390919063ffffffff16565b565b60018054905082106115a1576040517f65cca54900000000000000000000000000000000000000000000000000000000815260040160405180910390fd5b3373ffffffffffffffffffffffffffffffffffffffff16600183815481106115cc576115cb612bd9565b5b906000526020600020906006020160010160009054906101000a900473ffffffffffffffffffffffffffffffffffffffff1673ffffffffffffffffffffffffffffffffffffffff161461164b576040517f65cca54900000000000000000000000000000000000000000000000000000000815260040160405180910390fd5b60006001838154811061166157611660612bd9565b5b90600052602060002090600602019050818160010160006101000a81548173ffffffffffffffffffffffffffffffffffffffff021916908373ffffffffffffffffffffffffffffffffffffffff160217905550505050565b3373ffffffffffffffffffffffffffffffffffffffff1660008054906101000a900473ffffffffffffffffffffffffffffffffffffffff1673ffffffffffffffffffffffffffffffffffffffff1614611747576040517f08c379a000000000000000000000000000000000000000000000000000000000815260040161173e90612674565b60405180910390fd5b8060038190555050565b3373ffffffffffffffffffffffffffffffffffffffff1660008054906101000a900473ffffffffffffffffffffffffffffffffffffffff1673ffffffffffffffffffffffffffffffffffffffff16146117df576040517f08c379a00000000000000000000000000000000000000000000000000000000081526004016117d690612674565b60405180910390fd5b600073ffffffffffffffffffffffffffffffffffffffff168173ffffffffffffffffffffffffffffffffffffffff160361184e576040517f08c379a000000000000000000000000000000000000000000000000000000000815260040161184590612c7a565b60405180910390fd5b8073ffffffffffffffffffffffffffffffffffffffff1660008054906101000a900473ffffffffffffffffffffffffffffffffffffffff1673ffffffffffffffffffffffffffffffffffffffff167f8be0079c531659141344cd1fd0a4f28419497f9722a3daafe3b4186f6b6457e060405160405180910390a3806000806101000a81548173ffffffffffffffffffffffffffffffffffffffff021916908373ffffffffffffffffffffffffffffffffffffffff16021790555050565b60007fcd5ed15c6e187e77e9aee88184c21f4f2182ab5827cb3b7e07fbedcd63f03300905090565b61193b611e82565b600061194561190b565b905060008160000160006101000a81548160ff0219169083151502179055507f5db9ee0a495bf2e6ff9c91a7834c1ba4fdd244a5e8aa4e537bd38aeae4b073aa61198d611ec2565b60405161199a919061227a565b60405180910390a150565b6119ad611a17565b60006119b761190b565b905060018160000160006101000a81548160ff0219169083151502179055507f62e78cea01bee320cd4e420270b5ea74000d11b0c9f74754ebdbfc544b05a2586119ff611ec2565b604051611a0c919061227a565b60405180910390a150565b611a1f610379565b15611a56576040517fd93c066500000000000000000000000000000000000000000000000000000000815260040160405180910390fd5b565b600073ddd9845ba0d8f38d3045f804f67a1a8b9a528fcc73ffffffffffffffffffffffffffffffffffffffff166382dfdce48473039e2fb66102314ce7b64ce5ce3e5183bc94ad3860006040518463ffffffff1660e01b8152600401611ac093929190612c9a565b6020604051808303816000875af1158015611adf573d6000803e3d6000fd5b505050506040513d601f19601f82011682018060405250810190611b039190612ce6565b905060008373ffffffffffffffffffffffffffffffffffffffff166370a08231306040518263ffffffff1660e01b8152600401611b40919061227a565b602060405180830381865afa158015611b5d573d6000803e3d6000fd5b505050506040513d601f19601f82011682018060405250810190611b8191906127c2565b90508373ffffffffffffffffffffffffffffffffffffffff1663095ea7b373cc6169aa1e879d3a4227536671f85afdb2d23fad836040518363ffffffff1660e01b8152600401611bd2929190612d13565b6020604051808303816000875af1158015611bf1573d6000803e3d6000fd5b505050506040513d601f19601f82011682018060405250810190611c159190612d68565b50600073cc6169aa1e879d3a4227536671f85afdb2d23fad73ffffffffffffffffffffffffffffffffffffffff1663b7e0d4c0858760008660008030426040518963ffffffff1660e01b8152600401611c749796959493929190612dd0565b60606040518083038185885af1158015611c92573d6000803e3d6000fd5b50505050506040513d601f19601f82011682018060405250810190611cb79190612e3f565b925050508273ffffffffffffffffffffffffffffffffffffffff1663a9059cbb6000836040518363ffffffff1660e01b8152600401611cf7929190612d13565b6020604051808303816000875af1158015611d16573d6000803e3d6000fd5b505050506040513d601f19601f82011682018060405250810190611d3a9190612d68565b507f754a671be8cbd29278911b8d2a0a79e44f20003eef4b4c286a9006bcbbe4a5993073039e2fb66102314ce7b64ce5ce3e5183bc94ad388786604051611d849493929190612e92565b60405180910390a15050505050565b80471015611dda5747816040517fcf479181000000000000000000000000000000000000000000000000000000008152600401611dd1929190612ed7565b60405180910390fd5b60008273ffffffffffffffffffffffffffffffffffffffff1682604051611e0090612f31565b60006040518083038185875af1925050503d8060008114611e3d576040519150601f19603f3d011682016040523d82523d6000602084013e611e42565b606091505b5050905080611e7d576040517fd6bda27500000000000000000000000000000000000000000000000000000000815260040160405180910390fd5b505050565b611e8a610379565b611ec0576040517f8dfc202b00000000000000000000000000000000000000000000000000000000815260040160405180910390fd5b565b600033905090565b61172480612f4783390190565b6040518060c00160405280600073ffffffffffffffffffffffffffffffffffffffff168152602001600073ffffffffffffffffffffffffffffffffffffffff168152602001606081526020016060815260200160608152602001600081525090565b6000604051905090565b600080fd5b600080fd5b600073ffffffffffffffffffffffffffffffffffffffff82169050919050565b6000611f7882611f4d565b9050919050565b611f8881611f6d565b8114611f9357600080fd5b50565b600081359050611fa581611f7f565b92915050565b600060208284031215611fc157611fc0611f43565b5b6000611fcf84828501611f96565b91505092915050565b6000819050919050565b611feb81611fd8565b82525050565b60006020820190506120066000830184611fe2565b92915050565b60008115159050919050565b6120218161200c565b82525050565b600060208201905061203c6000830184612018565b92915050565b600081519050919050565b600082825260208201905092915050565b6000819050602082019050919050565b61207781611f6d565b82525050565b600081519050919050565b600082825260208201905092915050565b60005b838110156120b757808201518184015260208101905061209c565b60008484015250505050565b6000601f19601f8301169050919050565b60006120df8261207d565b6120e98185612088565b93506120f9818560208601612099565b612102816120c3565b840191505092915050565b61211681611fd8565b82525050565b600060c083016000830151612134600086018261206e565b506020830151612147602086018261206e565b506040830151848203604086015261215f82826120d4565b9150506060830151848203606086015261217982826120d4565b9150506080830151848203608086015261219382826120d4565b91505060a08301516121a860a086018261210d565b508091505092915050565b60006121bf838361211c565b905092915050565b6000602082019050919050565b60006121df82612042565b6121e9818561204d565b9350836020820285016121fb8561205e565b8060005b85811015612237578484038952815161221885826121b3565b9450612223836121c7565b925060208a019950506001810190506121ff565b50829750879550505050505092915050565b6000602082019050818103600083015261226381846121d4565b905092915050565b61227481611f6d565b82525050565b600060208201905061228f600083018461226b565b92915050565b600080604083850312156122ac576122ab611f43565b5b60006122ba85828601611f96565b92505060206122cb85828601611f96565b9150509250929050565b600080fd5b600080fd5b7f4e487b7100000000000000000000000000000000000000000000000000000000600052604160045260246000fd5b612317826120c3565b810181811067ffffffffffffffff82111715612336576123356122df565b5b80604052505050565b6000612349611f39565b9050612355828261230e565b919050565b600067ffffffffffffffff821115612375576123746122df565b5b61237e826120c3565b9050602081019050919050565b82818337600083830152505050565b60006123ad6123a88461235a565b61233f565b9050828152602081018484840111156123c9576123c86122da565b5b6123d484828561238b565b509392505050565b600082601f8301126123f1576123f06122d5565b5b813561240184826020860161239a565b91505092915050565b6000806000806080858703121561242457612423611f43565b5b600061243287828801611f96565b945050602085013567ffffffffffffffff81111561245357612452611f48565b5b61245f878288016123dc565b935050604085013567ffffffffffffffff8111156124805761247f611f48565b5b61248c878288016123dc565b925050606085013567ffffffffffffffff8111156124ad576124ac611f48565b5b6124b9878288016123dc565b91505092959194509250565b6124ce81611fd8565b81146124d957600080fd5b50565b6000813590506124eb816124c5565b92915050565b60006020828403121561250757612506611f43565b5b6000612515848285016124dc565b91505092915050565b600060c083016000830151612536600086018261206e565b506020830151612549602086018261206e565b506040830151848203604086015261256182826120d4565b9150506060830151848203606086015261257b82826120d4565b9150506080830151848203608086015261259582826120d4565b91505060a08301516125aa60a086018261210d565b508091505092915050565b600060208201905081810360008301526125cf818461251e565b905092915050565b600080604083850312156125ee576125ed611f43565b5b60006125fc858286016124dc565b925050602061260d85828601611f96565b9150509250929050565b600082825260208201905092915050565b7f4f776e61626c653a2063616c6c6572206973206e6f7420746865206f776e6572600082015250565b600061265e602083612617565b915061266982612628565b602082019050919050565b6000602082019050818103600083015261268d81612651565b9050919050565b7f4e487b7100000000000000000000000000000000000000000000000000000000600052602260045260246000fd5b600060028204905060018216806126db57607f821691505b6020821081036126ee576126ed612694565b5b50919050565b60006127076127028461235a565b61233f565b905082815260208101848484011115612723576127226122da565b5b61272e848285612099565b509392505050565b600082601f83011261274b5761274a6122d5565b5b815161275b8482602086016126f4565b91505092915050565b60006020828403121561277a57612779611f43565b5b600082015167ffffffffffffffff81111561279857612797611f48565b5b6127a484828501612736565b91505092915050565b6000815190506127bc816124c5565b92915050565b6000602082840312156127d8576127d7611f43565b5b60006127e6848285016127ad565b91505092915050565b60008190508160005260206000209050919050565b60006020601f8301049050919050565b600082821b905092915050565b6000600883026128517fffffffffffffffffffffffffffffffffffffffffffffffffffffffffffffffff82612814565b61285b8683612814565b95508019841693508086168417925050509392505050565b6000819050919050565b600061289861289361288e84611fd8565b612873565b611fd8565b9050919050565b6000819050919050565b6128b28361287d565b6128c66128be8261289f565b848454612821565b825550505050565b600090565b6128db6128ce565b6128e68184846128a9565b505050565b5b8181101561290a576128ff6000826128d3565b6001810190506128ec565b5050565b601f82111561294f57612920816127ef565b61292984612804565b81016020851015612938578190505b61294c61294485612804565b8301826128eb565b50505b505050565b600082821c905092915050565b600061297260001984600802612954565b1980831691505092915050565b600061298b8383612961565b9150826002028217905092915050565b6129a48261207d565b67ffffffffffffffff8111156129bd576129bc6122df565b5b6129c782546126c3565b6129d282828561290e565b600060209050601f831160018114612a0557600084156129f3578287015190505b6129fd858261297f565b865550612a65565b601f198416612a13866127ef565b60005b82811015612a3b57848901518255600182019150602085019450602081019050612a16565b86831015612a585784890151612a54601f891682612961565b8355505b6001600288020188555050505b505050505050565b7f4e487b7100000000000000000000000000000000000000000000000000000000600052601160045260246000fd5b6000612aa782611fd8565b9150612ab283611fd8565b9250828203905081811115612aca57612ac9612a6d565b5b92915050565b6000612adb8261207d565b612ae58185612617565b9350612af5818560208601612099565b612afe816120c3565b840191505092915050565b600060c082019050612b1e600083018961226b565b8181036020830152612b308188612ad0565b90508181036040830152612b448187612ad0565b90508181036060830152612b588186612ad0565b9050612b676080830185611fe2565b612b7460a083018461226b565b979650505050505050565b60006080820190508181036000830152612b998187612ad0565b90508181036020830152612bad8186612ad0565b90508181036040830152612bc18185612ad0565b9050612bd06060830184611fe2565b95945050505050565b7f4e487b7100000000000000000000000000000000000000000000000000000000600052603260045260246000fd5b7f4f776e61626c653a206e6577206f776e657220697320746865207a65726f206160008201527f6464726573730000000000000000000000000000000000000000000000000000602082015250565b6000612c64602683612617565b9150612c6f82612c08565b604082019050919050565b60006020820190508181036000830152612c9381612c57565b9050919050565b6000606082019050612caf600083018661226b565b612cbc602083018561226b565b612cc96040830184612018565b949350505050565b600081519050612ce081611f7f565b92915050565b600060208284031215612cfc57612cfb611f43565b5b6000612d0a84828501612cd1565b91505092915050565b6000604082019050612d28600083018561226b565b612d356020830184611fe2565b9392505050565b612d458161200c565b8114612d5057600080fd5b50565b600081519050612d6281612d3c565b92915050565b600060208284031215612d7e57612d7d611f43565b5b6000612d8c84828501612d53565b91505092915050565b6000819050919050565b6000612dba612db5612db084612d95565b612873565b611fd8565b9050919050565b612dca81612d9f565b82525050565b600060e082019050612de5600083018a61226b565b612df26020830189612018565b612dff6040830188611fe2565b612e0c6060830187612dc1565b612e196080830186612dc1565b612e2660a083018561226b565b612e3360c0830184611fe2565b98975050505050505050565b600080600060608486031215612e5857612e57611f43565b5b6000612e66868287016127ad565b9350506020612e77868287016127ad565b9250506040612e88868287016127ad565b9150509250925092565b6000608082019050612ea7600083018761226b565b612eb4602083018661226b565b612ec1604083018561226b565b612ece606083018461226b565b95945050505050565b6000604082019050612eec6000830185611fe2565b612ef96020830184611fe2565b9392505050565b600081905092915050565b50565b6000612f1b600083612f00565b9150612f2682612f0b565b600082019050919050565b6000612f3c82612f0e565b915081905091905056fe60806040526000600160006101000a81548160ff021916908315150217905550348015602a57600080fd5b506116ea8061003a6000396000f3fe608060405234801561001057600080fd5b50600436106100a95760003560e01c8063313ce56711610071578063313ce5671461016657806370a082311461018457806395d89b41146101b4578063a9059cbb146101d2578063dd62ed3e14610202578063eac989f814610232576100a9565b806306fdde03146100ae578063095ea7b3146100cc57806318160ddd146100fc5780631c5d2b491461011a57806323b872dd14610136575b600080fd5b6100b6610250565b6040516100c39190610dc3565b60405180910390f35b6100e660048036038101906100e19190610e8d565b6102f1565b6040516100f39190610ee8565b60405180910390f35b610104610314565b6040516101119190610f12565b60405180910390f35b610134600480360381019061012f9190611062565b61032c565b005b610150600480360381019061014b919061111d565b610409565b60405161015d9190610ee8565b60405180910390f35b61016e610438565b60405161017b919061118c565b60405180910390f35b61019e600480360381019061019991906111a7565b610441565b6040516101ab9190610f12565b60405180910390f35b6101bc610498565b6040516101c99190610dc3565b60405180910390f35b6101ec60048036038101906101e79190610e8d565b610539565b6040516101f99190610ee8565b60405180910390f35b61021c600480360381019061021791906111d4565b61055c565b6040516102299190610f12565b60405180910390f35b61023a6105f1565b6040516102479190610dc3565b60405180910390f35b6060600061025c61067f565b905080600301805461026d90611243565b80601f016020809104026020016040519081016040528092919081815260200182805461029990611243565b80156102e65780601f106102bb576101008083540402835291602001916102e6565b820191906000526020600020905b8154815290600101906020018083116102c957829003601f168201915b505050505091505090565b6000806102fc6106a7565b90506103098185856106af565b600191505092915050565b60008061031f61067f565b9050806002015491505090565b60001515600160009054906101000a900460ff16151514610382576040517f08c379a0000000000000000000000000000000000000000000000000000000008152600401610379906112c0565b60405180910390fd5b600081116103c5576040517f08c379a00000000000000000000000000000000000000000000000000000000081526004016103bc90611352565b60405180910390fd5b6103cf84846106c1565b81600090816103de919061151e565b506103e933826106cf565b60018060006101000a81548160ff02191690831515021790555050505050565b6000806104146106a7565b9050610421858285610751565b61042c8585856107e5565b60019150509392505050565b60006012905090565b60008061044c61067f565b90508060000160008473ffffffffffffffffffffffffffffffffffffffff1673ffffffffffffffffffffffffffffffffffffffff16815260200190815260200160002054915050919050565b606060006104a461067f565b90508060040180546104b590611243565b80601f01602080910402602001604051908101604052809291908181526020018280546104e190611243565b801561052e5780601f106105035761010080835404028352916020019161052e565b820191906000526020600020905b81548152906001019060200180831161051157829003601f168201915b505050505091505090565b6000806105446106a7565b90506105518185856107e5565b600191505092915050565b60008061056761067f565b90508060010160008573ffffffffffffffffffffffffffffffffffffffff1673ffffffffffffffffffffffffffffffffffffffff16815260200190815260200160002060008473ffffffffffffffffffffffffffffffffffffffff1673ffffffffffffffffffffffffffffffffffffffff1681526020019081526020016000205491505092915050565b600080546105fe90611243565b80601f016020809104026020016040519081016040528092919081815260200182805461062a90611243565b80156106775780601f1061064c57610100808354040283529160200191610677565b820191906000526020600020905b81548152906001019060200180831161065a57829003601f168201915b505050505081565b60007f52c63247e1f47db19d5ce0460030c497f067ca4cebf71ba98eeadabe20bace00905090565b600033905090565b6106bc83838360016108d9565b505050565b6106cb8282610abf565b5050565b600073ffffffffffffffffffffffffffffffffffffffff168273ffffffffffffffffffffffffffffffffffffffff16036107415760006040517fec442f0500000000000000000000000000000000000000000000000000000000815260040161073891906115ff565b60405180910390fd5b61074d60008383610af4565b5050565b600061075d848461055c565b90507fffffffffffffffffffffffffffffffffffffffffffffffffffffffffffffffff81146107df57818110156107cf578281836040517ffb8f41b20000000000000000000000000000000000000000000000000000000081526004016107c69392919061161a565b60405180910390fd5b6107de848484840360006108d9565b5b50505050565b600073ffffffffffffffffffffffffffffffffffffffff168373ffffffffffffffffffffffffffffffffffffffff16036108575760006040517f96c6fd1e00000000000000000000000000000000000000000000000000000000815260040161084e91906115ff565b60405180910390fd5b600073ffffffffffffffffffffffffffffffffffffffff168273ffffffffffffffffffffffffffffffffffffffff16036108c95760006040517fec442f050000000000000000000000000000000000000000000000000000000081526004016108c091906115ff565b60405180910390fd5b6108d4838383610af4565b505050565b60006108e361067f565b9050600073ffffffffffffffffffffffffffffffffffffffff168573ffffffffffffffffffffffffffffffffffffffff16036109575760006040517fe602df0500000000000000000000000000000000000000000000000000000000815260040161094e91906115ff565b60405180910390fd5b600073ffffffffffffffffffffffffffffffffffffffff168473ffffffffffffffffffffffffffffffffffffffff16036109c95760006040517f94280d620000000000000000000000000000000000000000000000000000000081526004016109c091906115ff565b60405180910390fd5b828160010160008773ffffffffffffffffffffffffffffffffffffffff1673ffffffffffffffffffffffffffffffffffffffff16815260200190815260200160002060008673ffffffffffffffffffffffffffffffffffffffff1673ffffffffffffffffffffffffffffffffffffffff168152602001908152602001600020819055508115610ab8578373ffffffffffffffffffffffffffffffffffffffff168573ffffffffffffffffffffffffffffffffffffffff167f8c5be1e5ebec7d5bd14f71427d1e84f3dd0314c0f7b2291e5b200ac8c7c3b92585604051610aaf9190610f12565b60405180910390a35b5050505050565b6000610ac961067f565b905082816003019081610adc919061151e565b5081816004019081610aee919061151e565b50505050565b6000610afe61067f565b9050600073ffffffffffffffffffffffffffffffffffffffff168473ffffffffffffffffffffffffffffffffffffffff1603610b545781816002016000828254610b489190611680565b92505081905550610c2d565b60008160000160008673ffffffffffffffffffffffffffffffffffffffff1673ffffffffffffffffffffffffffffffffffffffff16815260200190815260200160002054905082811015610be3578481846040517fe450d38c000000000000000000000000000000000000000000000000000000008152600401610bda9392919061161a565b60405180910390fd5b8281038260000160008773ffffffffffffffffffffffffffffffffffffffff1673ffffffffffffffffffffffffffffffffffffffff16815260200190815260200160002081905550505b600073ffffffffffffffffffffffffffffffffffffffff168373ffffffffffffffffffffffffffffffffffffffff1603610c7857818160020160008282540392505081905550610cc8565b818160000160008573ffffffffffffffffffffffffffffffffffffffff1673ffffffffffffffffffffffffffffffffffffffff168152602001908152602001600020600082825401925050819055505b8273ffffffffffffffffffffffffffffffffffffffff168473ffffffffffffffffffffffffffffffffffffffff167fddf252ad1be2c89b69c2b068fc378daa952ba7f163c4a11628f55a4df523b3ef84604051610d259190610f12565b60405180910390a350505050565b600081519050919050565b600082825260208201905092915050565b60005b83811015610d6d578082015181840152602081019050610d52565b60008484015250505050565b6000601f19601f8301169050919050565b6000610d9582610d33565b610d9f8185610d3e565b9350610daf818560208601610d4f565b610db881610d79565b840191505092915050565b60006020820190508181036000830152610ddd8184610d8a565b905092915050565b6000604051905090565b600080fd5b600080fd5b600073ffffffffffffffffffffffffffffffffffffffff82169050919050565b6000610e2482610df9565b9050919050565b610e3481610e19565b8114610e3f57600080fd5b50565b600081359050610e5181610e2b565b92915050565b6000819050919050565b610e6a81610e57565b8114610e7557600080fd5b50565b600081359050610e8781610e61565b92915050565b60008060408385031215610ea457610ea3610def565b5b6000610eb285828601610e42565b9250506020610ec385828601610e78565b9150509250929050565b60008115159050919050565b610ee281610ecd565b82525050565b6000602082019050610efd6000830184610ed9565b92915050565b610f0c81610e57565b82525050565b6000602082019050610f276000830184610f03565b92915050565b600080fd5b600080fd5b7f4e487b7100000000000000000000000000000000000000000000000000000000600052604160045260246000fd5b610f6f82610d79565b810181811067ffffffffffffffff82111715610f8e57610f8d610f37565b5b80604052505050565b6000610fa1610de5565b9050610fad8282610f66565b919050565b600067ffffffffffffffff821115610fcd57610fcc610f37565b5b610fd682610d79565b9050602081019050919050565b82818337600083830152505050565b600061100561100084610fb2565b610f97565b90508281526020810184848401111561102157611020610f32565b5b61102c848285610fe3565b509392505050565b600082601f83011261104957611048610f2d565b5b8135611059848260208601610ff2565b91505092915050565b6000806000806080858703121561107c5761107b610def565b5b600085013567ffffffffffffffff81111561109a57611099610df4565b5b6110a687828801611034565b945050602085013567ffffffffffffffff8111156110c7576110c6610df4565b5b6110d387828801611034565b935050604085013567ffffffffffffffff8111156110f4576110f3610df4565b5b61110087828801611034565b925050606061111187828801610e78565b91505092959194509250565b60008060006060848603121561113657611135610def565b5b600061114486828701610e42565b935050602061115586828701610e42565b925050604061116686828701610e78565b9150509250925092565b600060ff82169050919050565b61118681611170565b82525050565b60006020820190506111a1600083018461117d565b92915050565b6000602082840312156111bd576111bc610def565b5b60006111cb84828501610e42565b91505092915050565b600080604083850312156111eb576111ea610def565b5b60006111f985828601610e42565b925050602061120a85828601610e42565b9150509250929050565b7f4e487b7100000000000000000000000000000000000000000000000000000000600052602260045260246000fd5b6000600282049050600182168061125b57607f821691505b60208210810361126e5761126d611214565b5b50919050565b7f416c726561647920696e697469616c697a656421000000000000000000000000600082015250565b60006112aa601483610d3e565b91506112b582611274565b602082019050919050565b600060208201905081810360008301526112d98161129d565b9050919050565b7f496e697469616c20737570706c79206d7573742062652067726561746572207460008201527f68616e2030000000000000000000000000000000000000000000000000000000602082015250565b600061133c602583610d3e565b9150611347826112e0565b604082019050919050565b6000602082019050818103600083015261136b8161132f565b9050919050565b60008190508160005260206000209050919050565b60006020601f8301049050919050565b600082821b905092915050565b6000600883026113d47fffffffffffffffffffffffffffffffffffffffffffffffffffffffffffffffff82611397565b6113de8683611397565b95508019841693508086168417925050509392505050565b6000819050919050565b600061141b61141661141184610e57565b6113f6565b610e57565b9050919050565b6000819050919050565b61143583611400565b61144961144182611422565b8484546113a4565b825550505050565b600090565b61145e611451565b61146981848461142c565b505050565b5b8181101561148d57611482600082611456565b60018101905061146f565b5050565b601f8211156114d2576114a381611372565b6114ac84611387565b810160208510156114bb578190505b6114cf6114c785611387565b83018261146e565b50505b505050565b600082821c905092915050565b60006114f5600019846008026114d7565b1980831691505092915050565b600061150e83836114e4565b9150826002028217905092915050565b61152782610d33565b67ffffffffffffffff8111156115405761153f610f37565b5b61154a8254611243565b611555828285611491565b600060209050601f8311600181146115885760008415611576578287015190505b6115808582611502565b8655506115e8565b601f19841661159686611372565b60005b828110156115be57848901518255600182019150602085019450602081019050611599565b868310156115db57848901516115d7601f8916826114e4565b8355505b6001600288020188555050505b505050505050565b6115f981610e19565b82525050565b600060208201905061161460008301846115f0565b92915050565b600060608201905061162f60008301866115f0565b61163c6020830185610f03565b6116496040830184610f03565b949350505050565b7f4e487b7100000000000000000000000000000000000000000000000000000000600052601160045260246000fd5b600061168b82610e57565b915061169683610e57565b92508282019050808211156116ae576116ad611651565b5b9291505056fea2646970667358221220be8060f7ca3c741084c472cc61b4e8c4cc204e3a7187f0d45d7cf06c129d1d4d64736f6c634300081c0033a26469706673582212206230ce29ee62f2bdfb332cc67ec4500bda7506ab404da25a12c2ae3c0b1f3a4f64736f6c634300081c0033",
  "linkReferences": {},
  "deployedLinkReferences": {}
}