{
  "_format": "hh-sol-artifact-1",
  "contractName": "Sp33dFun",
  "sourceName": "contracts/Sp33dFun.sol",
  "abi": [
    {
      "inputs": [],
      "name": "EnforcedPause",
      "type": "error"
    },
    {
      "inputs": [],
      "name": "ExpectedPause",
      "type": "error"
    },
    {
      "inputs": [],
      "name": "FailedCall",
      "type": "error"
    },
    {
      "inputs": [
        {
          "internalType": "uint256",
          "name": "balance",
          "type": "uint256"
        },
        {
          "internalType": "uint256",
          "name": "needed",
          "type": "uint256"
        }
      ],
      "name": "InsufficientBalance",
      "type": "error"
    },
    {
      "inputs": [],
      "name": "InvalidInitialization",
      "type": "error"
    },
    {
      "inputs": [],
      "name": "InvalidParams",
      "type": "error"
    },
    {
      "inputs": [],
      "name": "NotInitializing",
      "type": "error"
    },
    {
      "inputs": [],
      "name": "OwnershipTransferFailed",
      "type": "error"
    },
    {
      "anonymous": false,
      "inputs": [
        {
          "indexed": false,
          "internalType": "address",
          "name": "owner",
          "type": "address"
        },
        {
          "indexed": false,
          "internalType": "address",
          "name": "token0",
          "type": "address"
        },
        {
          "indexed": false,
          "internalType": "address",
          "name": "token1",
          "type": "address"
        },
        {
          "indexed": false,
          "internalType": "address",
          "name": "pair",
          "type": "address"
        }
      ],
      "name": "HandleLiquidity",
      "type": "event"
    },
    {
      "anonymous": false,
      "inputs": [
        {
          "indexed": false,
          "internalType": "uint64",
          "name": "version",
          "type": "uint64"
        }
      ],
      "name": "Initialized",
      "type": "event"
    },
    {
      "anonymous": false,
      "inputs": [
        {
          "indexed": false,
          "internalType": "address",
          "name": "owner",
          "type": "address"
        },
        {
          "indexed": false,
          "internalType": "string",
          "name": "name",
          "type": "string"
        },
        {
          "indexed": false,
          "internalType": "string",
          "name": "symbol",
          "type": "string"
        },
        {
          "indexed": false,
          "internalType": "string",
          "name": "uri",
          "type": "string"
        },
        {
          "indexed": false,
          "internalType": "uint256",
          "name": "maxSupply",
          "type": "uint256"
        },
        {
          "indexed": false,
          "internalType": "address",
          "name": "token",
          "type": "address"
        }
      ],
      "name": "Launched",
      "type": "event"
    },
    {
      "anonymous": false,
      "inputs": [
        {
          "indexed": true,
          "internalType": "address",
          "name": "previousOwner",
          "type": "address"
        },
        {
          "indexed": true,
          "internalType": "address",
          "name": "newOwner",
          "type": "address"
        }
      ],
      "name": "OwnershipTransferred",
      "type": "event"
    },
    {
      "anonymous": false,
      "inputs": [
        {
          "indexed": false,
          "internalType": "address",
          "name": "account",
          "type": "address"
        }
      ],
      "name": "Paused",
      "type": "event"
    },
    {
      "anonymous": false,
      "inputs": [
        {
          "indexed": false,
          "internalType": "address",
          "name": "account",
          "type": "address"
        }
      ],
      "name": "Unpaused",
      "type": "event"
    },
    {
      "inputs": [],
      "name": "MAX_SUPPLY",
      "outputs": [
        {
          "internalType": "uint256",
          "name": "",
          "type": "uint256"
        }
      ],
      "stateMutability": "view",
      "type": "function"
    },
    {
      "inputs": [],
      "name": "allPairsLength",
      "outputs": [
        {
          "internalType": "uint256",
          "name": "",
          "type": "uint256"
        }
      ],
      "stateMutability": "view",
      "type": "function"
    },
    {
      "inputs": [],
      "name": "claimLaunchTaxes",
      "outputs": [],
      "stateMutability": "nonpayable",
      "type": "function"
    },
    {
      "inputs": [],
      "name": "getAllToken",
      "outputs": [
        {
          "components": [
            {
              "internalType": "address",
              "name": "instance",
              "type": "address"
            },
            {
              "internalType": "address",
              "name": "owner",
              "type": "address"
            },
            {
              "internalType": "string",
              "name": "name",
              "type": "string"
            },
            {
              "internalType": "string",
              "name": "symbol",
              "type": "string"
            },
            {
              "internalType": "string",
              "name": "uri",
              "type": "string"
            },
            {
              "internalType": "uint256",
              "name": "maxSupply",
              "type": "uint256"
            }
          ],
          "internalType": "struct Sp33dFun.Token[]",
          "name": "",
          "type": "tuple[]"
        }
      ],
      "stateMutability": "view",
      "type": "function"
    },
    {
      "inputs": [
        {
          "internalType": "uint256",
          "name": "id",
          "type": "uint256"
        }
      ],
      "name": "getToken",
      "outputs": [
        {
          "components": [
            {
              "internalType": "address",
              "name": "instance",
              "type": "address"
            },
            {
              "internalType": "address",
              "name": "owner",
              "type": "address"
            },
            {
              "internalType": "string",
              "name": "name",
              "type": "string"
            },
            {
              "internalType": "string",
              "name": "symbol",
              "type": "string"
            },
            {
              "internalType": "string",
              "name": "uri",
              "type": "string"
            },
            {
              "internalType": "uint256",
              "name": "maxSupply",
              "type": "uint256"
            }
          ],
          "internalType": "struct Sp33dFun.Token",
          "name": "",
          "type": "tuple"
        }
      ],
      "stateMutability": "view",
      "type": "function"
    },
    {
      "inputs": [],
      "name": "initialAmount",
      "outputs": [
        {
          "internalType": "uint256",
          "name": "",
          "type": "uint256"
        }
      ],
      "stateMutability": "view",
      "type": "function"
    },
    {
      "inputs": [
        {
          "internalType": "address",
          "name": "tokenOwner",
          "type": "address"
        },
        {
          "internalType": "string",
          "name": "name",
          "type": "string"
        },
        {
          "internalType": "string",
          "name": "symbol",
          "type": "string"
        },
        {
          "internalType": "string",
          "name": "uri",
          "type": "string"
        }
      ],
      "name": "launch",
      "outputs": [],
      "stateMutability": "payable",
      "type": "function"
    },
    {
      "inputs": [
        {
          "internalType": "address",
          "name": "tokenOwner",
          "type": "address"
        },
        {
          "internalType": "address",
          "name": "token",
          "type": "address"
        }
      ],
      "name": "launchPermissioned",
      "outputs": [],
      "stateMutability": "nonpayable",
      "type": "function"
    },
    {
      "inputs": [],
      "name": "owner",
      "outputs": [
        {
          "internalType": "address",
          "name": "",
          "type": "address"
        }
      ],
      "stateMutability": "view",
      "type": "function"
    },
    {
      "inputs": [],
      "name": "paused",
      "outputs": [
        {
          "internalType": "bool",
          "name": "",
          "type": "bool"
        }
      ],
      "stateMutability": "view",
      "type": "function"
    },
    {
      "inputs": [],
      "name": "renounceOwnership",
      "outputs": [],
      "stateMutability": "nonpayable",
      "type": "function"
    },
    {
      "inputs": [],
      "name": "togglePause",
      "outputs": [],
      "stateMutability": "nonpayable",
      "type": "function"
    },
    {
      "inputs": [
        {
          "internalType": "address",
          "name": "",
          "type": "address"
        }
      ],
      "name": "tokenIndexes",
      "outputs": [
        {
          "internalType": "uint256",
          "name": "",
          "type": "uint256"
        }
      ],
      "stateMutability": "view",
      "type": "function"
    },
    {
      "inputs": [
        {
          "internalType": "address",
          "name": "newOwner",
          "type": "address"
        }
      ],
      "name": "transferOwnership",
      "outputs": [],
      "stateMutability": "nonpayable",
      "type": "function"
    },
    {
      "inputs": [
        {
          "internalType": "uint256",
          "name": "id",
          "type": "uint256"
        },
        {
          "internalType": "address",
          "name": "newOwner",
          "type": "address"
        }
      ],
      "name": "transferTokenOwnership",
      "outputs": [],
      "stateMutability": "nonpayable",
      "type": "function"
    },
    {
      "inputs": [
        {
          "internalType": "uint256",
          "name": "_initialAmount",
          "type": "uint256"
        }
      ],
      "name": "updateInitialAmount",
      "outputs": [],
      "stateMutability": "nonpayable",
      "type": "function"
    },
    {
      "inputs": [
        {
          "internalType": "uint256",
          "name": "_maxSupply",
          "type": "uint256"
        }
      ],
      "name": "updateMaxSupply",
      "outputs": [],
      "stateMutability": "nonpayable",
      "type": "function"
    },
    {
      "stateMutability": "payable",
      "type": "receive"
    }
  ],
  "bytecode": "0x6080604052662386f26fc100006001556b033b2e3c9fd0803ce8000000600455348015602a57600080fd5b506000339050806000806101000a81548173ffffffffffffffffffffffffffffffffffffffff021916908373ffffffffffffffffffffffffffffffffffffffff1602179055508073ffffffffffffffffffffffffffffffffffffffff16600073ffffffffffffffffffffffffffffffffffffffff167f8be0079c531659141344cd1fd0a4f28419497f9722a3daafe3b4186f6b6457e060405160405180910390a350614822806100db6000396000f3fe6080604052600436106101025760003560e01c8063c4ae316811610095578063e904836111610064578063e9048361146102fb578063e9cf64e614610312578063f103b4331461033b578063f2fde38b14610364578063fc1ed4371461038d57610109565b8063c4ae316814610262578063cb2df31114610279578063e1706045146102a2578063e4b50cb8146102be57610109565b8063715018a6116100d1578063715018a6146101cc578063763e44e9146101e357806385e3c1d41461020c5780638da5cb5b1461023757610109565b806304bc3b1c1461010e57806332cb6b0c1461014b578063574f2ba3146101765780635c975abb146101a157610109565b3661010957005b600080fd5b34801561011a57600080fd5b5061013560048036038101906101309190612072565b6103b8565b60405161014291906120b8565b60405180910390f35b34801561015757600080fd5b506101606103d0565b60405161016d91906120b8565b60405180910390f35b34801561018257600080fd5b5061018b6103d6565b60405161019891906120b8565b60405180910390f35b3480156101ad57600080fd5b506101b66103e3565b6040516101c391906120ee565b60405180910390f35b3480156101d857600080fd5b506101e1610408565b005b3480156101ef57600080fd5b5061020a60048036038101906102059190612135565b610554565b005b34801561021857600080fd5b506102216105ec565b60405161022e9190612369565b60405180910390f35b34801561024357600080fd5b5061024c6108b7565b604051610259919061239a565b60405180910390f35b34801561026e57600080fd5b506102776108e0565b005b34801561028557600080fd5b506102a0600480360381019061029b91906123b5565b610993565b005b6102bc60048036038101906102b7919061252a565b610fa9565b005b3480156102ca57600080fd5b506102e560048036038101906102e09190612135565b6112a7565b6040516102f2919061267c565b60405180910390f35b34801561030757600080fd5b506103106115ec565b005b34801561031e57600080fd5b506103396004803603810190610334919061269e565b6116ac565b005b34801561034757600080fd5b50610362600480360381019061035d9190612135565b611802565b005b34801561037057600080fd5b5061038b60048036038101906103869190612072565b61189a565b005b34801561039957600080fd5b506103a2611a54565b6040516103af91906120b8565b60405180910390f35b60036020528060005260406000206000915090505481565b60045481565b6000600280549050905090565b6000806103ee611a5a565b90508060000160009054906101000a900460ff1691505090565b3373ffffffffffffffffffffffffffffffffffffffff1660008054906101000a900473ffffffffffffffffffffffffffffffffffffffff1673ffffffffffffffffffffffffffffffffffffffff1614610496576040517f08c379a000000000000000000000000000000000000000000000000000000000815260040161048d9061273b565b60405180910390fd5b600073ffffffffffffffffffffffffffffffffffffffff1660008054906101000a900473ffffffffffffffffffffffffffffffffffffffff1673ffffffffffffffffffffffffffffffffffffffff167f8be0079c531659141344cd1fd0a4f28419497f9722a3daafe3b4186f6b6457e060405160405180910390a360008060006101000a81548173ffffffffffffffffffffffffffffffffffffffff021916908373ffffffffffffffffffffffffffffffffffffffff160217905550565b3373ffffffffffffffffffffffffffffffffffffffff1660008054906101000a900473ffffffffffffffffffffffffffffffffffffffff1673ffffffffffffffffffffffffffffffffffffffff16146105e2576040517f08c379a00000000000000000000000000000000000000000000000000000000081526004016105d99061273b565b60405180910390fd5b8060018190555050565b60606002805480602002602001604051908101604052809291908181526020016000905b828210156108ae57838290600052602060002090600602016040518060c00160405290816000820160009054906101000a900473ffffffffffffffffffffffffffffffffffffffff1673ffffffffffffffffffffffffffffffffffffffff1673ffffffffffffffffffffffffffffffffffffffff1681526020016001820160009054906101000a900473ffffffffffffffffffffffffffffffffffffffff1673ffffffffffffffffffffffffffffffffffffffff1673ffffffffffffffffffffffffffffffffffffffff1681526020016002820180546106ef9061278a565b80601f016020809104026020016040519081016040528092919081815260200182805461071b9061278a565b80156107685780601f1061073d57610100808354040283529160200191610768565b820191906000526020600020905b81548152906001019060200180831161074b57829003601f168201915b505050505081526020016003820180546107819061278a565b80601f01602080910402602001604051908101604052809291908181526020018280546107ad9061278a565b80156107fa5780601f106107cf576101008083540402835291602001916107fa565b820191906000526020600020905b8154815290600101906020018083116107dd57829003601f168201915b505050505081526020016004820180546108139061278a565b80601f016020809104026020016040519081016040528092919081815260200182805461083f9061278a565b801561088c5780601f106108615761010080835404028352916020019161088c565b820191906000526020600020905b81548152906001019060200180831161086f57829003601f168201915b5050505050815260200160058201548152505081526020019060010190610610565b50505050905090565b60008060009054906101000a900473ffffffffffffffffffffffffffffffffffffffff16905090565b3373ffffffffffffffffffffffffffffffffffffffff1660008054906101000a900473ffffffffffffffffffffffffffffffffffffffff1673ffffffffffffffffffffffffffffffffffffffff161461096e576040517f08c379a00000000000000000000000000000000000000000000000000000000081526004016109659061273b565b60405180910390fd5b6109766103e3565b1561098857610983611a82565b610991565b610990611af4565b5b565b3373ffffffffffffffffffffffffffffffffffffffff1660008054906101000a900473ffffffffffffffffffffffffffffffffffffffff1673ffffffffffffffffffffffffffffffffffffffff1614610a21576040517f08c379a0000000000000000000000000000000000000000000000000000000008152600401610a189061273b565b60405180910390fd5b60026040518060c001604052808373ffffffffffffffffffffffffffffffffffffffff1681526020018473ffffffffffffffffffffffffffffffffffffffff1681526020018373ffffffffffffffffffffffffffffffffffffffff166306fdde036040518163ffffffff1660e01b8152600401600060405180830381865afa158015610ab1573d6000803e3d6000fd5b505050506040513d6000823e3d601f19601f82011682018060405250810190610ada919061282b565b81526020018373ffffffffffffffffffffffffffffffffffffffff166395d89b416040518163ffffffff1660e01b8152600401600060405180830381865afa158015610b2a573d6000803e3d6000fd5b505050506040513d6000823e3d601f19601f82011682018060405250810190610b53919061282b565b81526020018373ffffffffffffffffffffffffffffffffffffffff1663eac989f86040518163ffffffff1660e01b8152600401600060405180830381865afa158015610ba3573d6000803e3d6000fd5b505050506040513d6000823e3d601f19601f82011682018060405250810190610bcc919061282b565b81526020018373ffffffffffffffffffffffffffffffffffffffff166318160ddd6040518163ffffffff1660e01b8152600401602060405180830381865afa158015610c1c573d6000803e3d6000fd5b505050506040513d601f19601f82011682018060405250810190610c409190612889565b815250908060018154018082558091505060019003906000526020600020906006020160009091909190915060008201518160000160006101000a81548173ffffffffffffffffffffffffffffffffffffffff021916908373ffffffffffffffffffffffffffffffffffffffff16021790555060208201518160010160006101000a81548173ffffffffffffffffffffffffffffffffffffffff021916908373ffffffffffffffffffffffffffffffffffffffff1602179055506040820151816002019081610d0f9190612a62565b506060820151816003019081610d259190612a62565b506080820151816004019081610d3b9190612a62565b5060a0820151816005015550506001600280549050610d5a9190612b63565b600360008373ffffffffffffffffffffffffffffffffffffffff1673ffffffffffffffffffffffffffffffffffffffff168152602001908152602001600020819055507f5817009675d028c198e1f662814eee896d46b66f4c0085802b7996071590667d828273ffffffffffffffffffffffffffffffffffffffff166306fdde036040518163ffffffff1660e01b8152600401600060405180830381865afa158015610e0a573d6000803e3d6000fd5b505050506040513d6000823e3d601f19601f82011682018060405250810190610e33919061282b565b8373ffffffffffffffffffffffffffffffffffffffff166395d89b416040518163ffffffff1660e01b8152600401600060405180830381865afa158015610e7e573d6000803e3d6000fd5b505050506040513d6000823e3d601f19601f82011682018060405250810190610ea7919061282b565b8473ffffffffffffffffffffffffffffffffffffffff1663eac989f86040518163ffffffff1660e01b8152600401600060405180830381865afa158015610ef2573d6000803e3d6000fd5b505050506040513d6000823e3d601f19601f82011682018060405250810190610f1b919061282b565b8573ffffffffffffffffffffffffffffffffffffffff166318160ddd6040518163ffffffff1660e01b8152600401602060405180830381865afa158015610f66573d6000803e3d6000fd5b505050506040513d601f19601f82011682018060405250810190610f8a9190612889565b86604051610f9d96959493929190612bd0565b60405180910390a15050565b610fb1611b66565b600154341015610ff6576040517f08c379a0000000000000000000000000000000000000000000000000000000008152600401610fed90612cb8565b60405180910390fd5b600060405161100490611f91565b604051809103906000f080158015611020573d6000803e3d6000fd5b5090508073ffffffffffffffffffffffffffffffffffffffff1663767faf5d858585896004546001546040518763ffffffff1660e01b815260040161106a96959493929190612cd8565b600060405180830381600087803b15801561108457600080fd5b505af1158015611098573d6000803e3d6000fd5b505050506110a68186611ba7565b60026040518060c001604052808373ffffffffffffffffffffffffffffffffffffffff1681526020018773ffffffffffffffffffffffffffffffffffffffff168152602001868152602001858152602001848152602001600454815250908060018154018082558091505060019003906000526020600020906006020160009091909190915060008201518160000160006101000a81548173ffffffffffffffffffffffffffffffffffffffff021916908373ffffffffffffffffffffffffffffffffffffffff16021790555060208201518160010160006101000a81548173ffffffffffffffffffffffffffffffffffffffff021916908373ffffffffffffffffffffffffffffffffffffffff16021790555060408201518160020190816111cf9190612a62565b5060608201518160030190816111e59190612a62565b5060808201518160040190816111fb9190612a62565b5060a082015181600501555050600160028054905061121a9190612b63565b600360008373ffffffffffffffffffffffffffffffffffffffff1673ffffffffffffffffffffffffffffffffffffffff168152602001908152602001600020819055507f5817009675d028c198e1f662814eee896d46b66f4c0085802b7996071590667d858585856004548660405161129896959493929190612bd0565b60405180910390a15050505050565b6112af611f9e565b600280549050821061134b576040518060c00160405280600073ffffffffffffffffffffffffffffffffffffffff168152602001600073ffffffffffffffffffffffffffffffffffffffff168152602001604051806020016040528060008152508152602001604051806020016040528060008152508152602001604051806020016040528060008152508152602001600081525090506115e7565b6002828154811061135f5761135e612d4e565b5b90600052602060002090600602016040518060c00160405290816000820160009054906101000a900473ffffffffffffffffffffffffffffffffffffffff1673ffffffffffffffffffffffffffffffffffffffff1673ffffffffffffffffffffffffffffffffffffffff1681526020016001820160009054906101000a900473ffffffffffffffffffffffffffffffffffffffff1673ffffffffffffffffffffffffffffffffffffffff1673ffffffffffffffffffffffffffffffffffffffff1681526020016002820180546114349061278a565b80601f01602080910402602001604051908101604052809291908181526020018280546114609061278a565b80156114ad5780601f10611482576101008083540402835291602001916114ad565b820191906000526020600020905b81548152906001019060200180831161149057829003601f168201915b505050505081526020016003820180546114c69061278a565b80601f01602080910402602001604051908101604052809291908181526020018280546114f29061278a565b801561153f5780601f106115145761010080835404028352916020019161153f565b820191906000526020600020905b81548152906001019060200180831161152257829003601f168201915b505050505081526020016004820180546115589061278a565b80601f01602080910402602001604051908101604052809291908181526020018280546115849061278a565b80156115d15780601f106115a6576101008083540402835291602001916115d1565b820191906000526020600020905b8154815290600101906020018083116115b457829003601f168201915b5050505050815260200160058201548152505090505b919050565b3373ffffffffffffffffffffffffffffffffffffffff1660008054906101000a900473ffffffffffffffffffffffffffffffffffffffff1673ffffffffffffffffffffffffffffffffffffffff161461167a576040517f08c379a00000000000000000000000000000000000000000000000000000000081526004016116719061273b565b60405180910390fd5b6116aa476116866108b7565b73ffffffffffffffffffffffffffffffffffffffff16611e5a90919063ffffffff16565b565b60028054905082106116ea576040517f65cca54900000000000000000000000000000000000000000000000000000000815260040160405180910390fd5b3373ffffffffffffffffffffffffffffffffffffffff166002838154811061171557611714612d4e565b5b906000526020600020906006020160010160009054906101000a900473ffffffffffffffffffffffffffffffffffffffff1673ffffffffffffffffffffffffffffffffffffffff1614611794576040517f65cca54900000000000000000000000000000000000000000000000000000000815260040160405180910390fd5b6000600283815481106117aa576117a9612d4e565b5b90600052602060002090600602019050818160010160006101000a81548173ffffffffffffffffffffffffffffffffffffffff021916908373ffffffffffffffffffffffffffffffffffffffff160217905550505050565b3373ffffffffffffffffffffffffffffffffffffffff1660008054906101000a900473ffffffffffffffffffffffffffffffffffffffff1673ffffffffffffffffffffffffffffffffffffffff1614611890576040517f08c379a00000000000000000000000000000000000000000000000000000000081526004016118879061273b565b60405180910390fd5b8060048190555050565b3373ffffffffffffffffffffffffffffffffffffffff1660008054906101000a900473ffffffffffffffffffffffffffffffffffffffff1673ffffffffffffffffffffffffffffffffffffffff1614611928576040517f08c379a000000000000000000000000000000000000000000000000000000000815260040161191f9061273b565b60405180910390fd5b600073ffffffffffffffffffffffffffffffffffffffff168173ffffffffffffffffffffffffffffffffffffffff1603611997576040517f08c379a000000000000000000000000000000000000000000000000000000000815260040161198e90612def565b60405180910390fd5b8073ffffffffffffffffffffffffffffffffffffffff1660008054906101000a900473ffffffffffffffffffffffffffffffffffffffff1673ffffffffffffffffffffffffffffffffffffffff167f8be0079c531659141344cd1fd0a4f28419497f9722a3daafe3b4186f6b6457e060405160405180910390a3806000806101000a81548173ffffffffffffffffffffffffffffffffffffffff021916908373ffffffffffffffffffffffffffffffffffffffff16021790555050565b60015481565b60007fcd5ed15c6e187e77e9aee88184c21f4f2182ab5827cb3b7e07fbedcd63f03300905090565b611a8a611f49565b6000611a94611a5a565b905060008160000160006101000a81548160ff0219169083151502179055507f5db9ee0a495bf2e6ff9c91a7834c1ba4fdd244a5e8aa4e537bd38aeae4b073aa611adc611f89565b604051611ae9919061239a565b60405180910390a150565b611afc611b66565b6000611b06611a5a565b905060018160000160006101000a81548160ff0219169083151502179055507f62e78cea01bee320cd4e420270b5ea74000d11b0c9f74754ebdbfc544b05a258611b4e611f89565b604051611b5b919061239a565b60405180910390a150565b611b6e6103e3565b15611ba5576040517fd93c066500000000000000000000000000000000000000000000000000000000815260040160405180910390fd5b565b600073b7926c0430afb07aa7defde6da862ae0bde767bc73ffffffffffffffffffffffffffffffffffffffff1663c9c653968473ae13d989dac2f0debff460ac112a837c89baa7cd6040518363ffffffff1660e01b8152600401611c0c929190612e0f565b6020604051808303816000875af1158015611c2b573d6000803e3d6000fd5b505050506040513d601f19601f82011682018060405250810190611c4f9190612e4d565b905060008373ffffffffffffffffffffffffffffffffffffffff166370a08231306040518263ffffffff1660e01b8152600401611c8c919061239a565b602060405180830381865afa158015611ca9573d6000803e3d6000fd5b505050506040513d601f19601f82011682018060405250810190611ccd9190612889565b90508373ffffffffffffffffffffffffffffffffffffffff1663095ea7b3739ac64cc6e4415144c455bd8e4837fea55603e5c3836040518363ffffffff1660e01b8152600401611d1e929190612e7a565b6020604051808303816000875af1158015611d3d573d6000803e3d6000fd5b505050506040513d601f19601f82011682018060405250810190611d619190612ecf565b50739ac64cc6e4415144c455bd8e4837fea55603e5c373ffffffffffffffffffffffffffffffffffffffff1663f305d719600154868460008089426040518863ffffffff1660e01b8152600401611dbd96959493929190612f37565b60606040518083038185885af1158015611ddb573d6000803e3d6000fd5b50505050506040513d601f19601f82011682018060405250810190611e009190612f98565b5050507f754a671be8cbd29278911b8d2a0a79e44f20003eef4b4c286a9006bcbbe4a5998373ae13d989dac2f0debff460ac112a837c89baa7cd8685604051611e4c9493929190612feb565b60405180910390a150505050565b80471015611ea15747816040517fcf479181000000000000000000000000000000000000000000000000000000008152600401611e98929190613030565b60405180910390fd5b60008273ffffffffffffffffffffffffffffffffffffffff1682604051611ec79061308a565b60006040518083038185875af1925050503d8060008114611f04576040519150601f19603f3d011682016040523d82523d6000602084013e611f09565b606091505b5050905080611f44576040517fd6bda27500000000000000000000000000000000000000000000000000000000815260040160405180910390fd5b505050565b611f516103e3565b611f87576040517f8dfc202b00000000000000000000000000000000000000000000000000000000815260040160405180910390fd5b565b600033905090565b61174d806130a083390190565b6040518060c00160405280600073ffffffffffffffffffffffffffffffffffffffff168152602001600073ffffffffffffffffffffffffffffffffffffffff168152602001606081526020016060815260200160608152602001600081525090565b6000604051905090565b600080fd5b600080fd5b600073ffffffffffffffffffffffffffffffffffffffff82169050919050565b600061203f82612014565b9050919050565b61204f81612034565b811461205a57600080fd5b50565b60008135905061206c81612046565b92915050565b6000602082840312156120885761208761200a565b5b60006120968482850161205d565b91505092915050565b6000819050919050565b6120b28161209f565b82525050565b60006020820190506120cd60008301846120a9565b92915050565b60008115159050919050565b6120e8816120d3565b82525050565b600060208201905061210360008301846120df565b92915050565b6121128161209f565b811461211d57600080fd5b50565b60008135905061212f81612109565b92915050565b60006020828403121561214b5761214a61200a565b5b600061215984828501612120565b91505092915050565b600081519050919050565b600082825260208201905092915050565b6000819050602082019050919050565b61219781612034565b82525050565b600081519050919050565b600082825260208201905092915050565b60005b838110156121d75780820151818401526020810190506121bc565b60008484015250505050565b6000601f19601f8301169050919050565b60006121ff8261219d565b61220981856121a8565b93506122198185602086016121b9565b612222816121e3565b840191505092915050565b6122368161209f565b82525050565b600060c083016000830151612254600086018261218e565b506020830151612267602086018261218e565b506040830151848203604086015261227f82826121f4565b9150506060830151848203606086015261229982826121f4565b915050608083015184820360808601526122b382826121f4565b91505060a08301516122c860a086018261222d565b508091505092915050565b60006122df838361223c565b905092915050565b6000602082019050919050565b60006122ff82612162565b612309818561216d565b93508360208202850161231b8561217e565b8060005b85811015612357578484038952815161233885826122d3565b9450612343836122e7565b925060208a0199505060018101905061231f565b50829750879550505050505092915050565b6000602082019050818103600083015261238381846122f4565b905092915050565b61239481612034565b82525050565b60006020820190506123af600083018461238b565b92915050565b600080604083850312156123cc576123cb61200a565b5b60006123da8582860161205d565b92505060206123eb8582860161205d565b9150509250929050565b600080fd5b600080fd5b7f4e487b7100000000000000000000000000000000000000000000000000000000600052604160045260246000fd5b612437826121e3565b810181811067ffffffffffffffff82111715612456576124556123ff565b5b80604052505050565b6000612469612000565b9050612475828261242e565b919050565b600067ffffffffffffffff821115612495576124946123ff565b5b61249e826121e3565b9050602081019050919050565b82818337600083830152505050565b60006124cd6124c88461247a565b61245f565b9050828152602081018484840111156124e9576124e86123fa565b5b6124f48482856124ab565b509392505050565b600082601f830112612511576125106123f5565b5b81356125218482602086016124ba565b91505092915050565b600080600080608085870312156125445761254361200a565b5b60006125528782880161205d565b945050602085013567ffffffffffffffff8111156125735761257261200f565b5b61257f878288016124fc565b935050604085013567ffffffffffffffff8111156125a05761259f61200f565b5b6125ac878288016124fc565b925050606085013567ffffffffffffffff8111156125cd576125cc61200f565b5b6125d9878288016124fc565b91505092959194509250565b600060c0830160008301516125fd600086018261218e565b506020830151612610602086018261218e565b506040830151848203604086015261262882826121f4565b9150506060830151848203606086015261264282826121f4565b9150506080830151848203608086015261265c82826121f4565b91505060a083015161267160a086018261222d565b508091505092915050565b6000602082019050818103600083015261269681846125e5565b905092915050565b600080604083850312156126b5576126b461200a565b5b60006126c385828601612120565b92505060206126d48582860161205d565b9150509250929050565b600082825260208201905092915050565b7f4f776e61626c653a2063616c6c6572206973206e6f7420746865206f776e6572600082015250565b60006127256020836126de565b9150612730826126ef565b602082019050919050565b6000602082019050818103600083015261275481612718565b9050919050565b7f4e487b7100000000000000000000000000000000000000000000000000000000600052602260045260246000fd5b600060028204905060018216806127a257607f821691505b6020821081036127b5576127b461275b565b5b50919050565b60006127ce6127c98461247a565b61245f565b9050828152602081018484840111156127ea576127e96123fa565b5b6127f58482856121b9565b509392505050565b600082601f830112612812576128116123f5565b5b81516128228482602086016127bb565b91505092915050565b6000602082840312156128415761284061200a565b5b600082015167ffffffffffffffff81111561285f5761285e61200f565b5b61286b848285016127fd565b91505092915050565b60008151905061288381612109565b92915050565b60006020828403121561289f5761289e61200a565b5b60006128ad84828501612874565b91505092915050565b60008190508160005260206000209050919050565b60006020601f8301049050919050565b600082821b905092915050565b6000600883026129187fffffffffffffffffffffffffffffffffffffffffffffffffffffffffffffffff826128db565b61292286836128db565b95508019841693508086168417925050509392505050565b6000819050919050565b600061295f61295a6129558461209f565b61293a565b61209f565b9050919050565b6000819050919050565b61297983612944565b61298d61298582612966565b8484546128e8565b825550505050565b600090565b6129a2612995565b6129ad818484612970565b505050565b5b818110156129d1576129c660008261299a565b6001810190506129b3565b5050565b601f821115612a16576129e7816128b6565b6129f0846128cb565b810160208510156129ff578190505b612a13612a0b856128cb565b8301826129b2565b50505b505050565b600082821c905092915050565b6000612a3960001984600802612a1b565b1980831691505092915050565b6000612a528383612a28565b9150826002028217905092915050565b612a6b8261219d565b67ffffffffffffffff811115612a8457612a836123ff565b5b612a8e825461278a565b612a998282856129d5565b600060209050601f831160018114612acc5760008415612aba578287015190505b612ac48582612a46565b865550612b2c565b601f198416612ada866128b6565b60005b82811015612b0257848901518255600182019150602085019450602081019050612add565b86831015612b1f5784890151612b1b601f891682612a28565b8355505b6001600288020188555050505b505050505050565b7f4e487b7100000000000000000000000000000000000000000000000000000000600052601160045260246000fd5b6000612b6e8261209f565b9150612b798361209f565b9250828203905081811115612b9157612b90612b34565b5b92915050565b6000612ba28261219d565b612bac81856126de565b9350612bbc8185602086016121b9565b612bc5816121e3565b840191505092915050565b600060c082019050612be5600083018961238b565b8181036020830152612bf78188612b97565b90508181036040830152612c0b8187612b97565b90508181036060830152612c1f8186612b97565b9050612c2e60808301856120a9565b612c3b60a083018461238b565b979650505050505050565b7f496e697469616c416d6f756e743a20696e76616c696420696e697469616c204160008201527f6d6f756e74210000000000000000000000000000000000000000000000000000602082015250565b6000612ca26026836126de565b9150612cad82612c46565b604082019050919050565b60006020820190508181036000830152612cd181612c95565b9050919050565b600060c0820190508181036000830152612cf28189612b97565b90508181036020830152612d068188612b97565b90508181036040830152612d1a8187612b97565b9050612d29606083018661238b565b612d3660808301856120a9565b612d4360a08301846120a9565b979650505050505050565b7f4e487b7100000000000000000000000000000000000000000000000000000000600052603260045260246000fd5b7f4f776e61626c653a206e6577206f776e657220697320746865207a65726f206160008201527f6464726573730000000000000000000000000000000000000000000000000000602082015250565b6000612dd96026836126de565b9150612de482612d7d565b604082019050919050565b60006020820190508181036000830152612e0881612dcc565b9050919050565b6000604082019050612e24600083018561238b565b612e31602083018461238b565b9392505050565b600081519050612e4781612046565b92915050565b600060208284031215612e6357612e6261200a565b5b6000612e7184828501612e38565b91505092915050565b6000604082019050612e8f600083018561238b565b612e9c60208301846120a9565b9392505050565b612eac816120d3565b8114612eb757600080fd5b50565b600081519050612ec981612ea3565b92915050565b600060208284031215612ee557612ee461200a565b5b6000612ef384828501612eba565b91505092915050565b6000819050919050565b6000612f21612f1c612f1784612efc565b61293a565b61209f565b9050919050565b612f3181612f06565b82525050565b600060c082019050612f4c600083018961238b565b612f5960208301886120a9565b612f666040830187612f28565b612f736060830186612f28565b612f80608083018561238b565b612f8d60a08301846120a9565b979650505050505050565b600080600060608486031215612fb157612fb061200a565b5b6000612fbf86828701612874565b9350506020612fd086828701612874565b9250506040612fe186828701612874565b9150509250925092565b6000608082019050613000600083018761238b565b61300d602083018661238b565b61301a604083018561238b565b613027606083018461238b565b95945050505050565b600060408201905061304560008301856120a9565b61305260208301846120a9565b9392505050565b600081905092915050565b50565b6000613074600083613059565b915061307f82613064565b600082019050919050565b600061309582613067565b915081905091905056fe6080604052348015600f57600080fd5b5061172e8061001f6000396000f3fe608060405234801561001057600080fd5b50600436106100a95760003560e01c806370a082311161007157806370a0823114610168578063767faf5d1461019857806395d89b41146101b4578063a9059cbb146101d2578063dd62ed3e14610202578063eac989f814610232576100a9565b806306fdde03146100ae578063095ea7b3146100cc57806318160ddd146100fc57806323b872dd1461011a578063313ce5671461014a575b600080fd5b6100b6610250565b6040516100c39190610dad565b60405180910390f35b6100e660048036038101906100e19190610e77565b6102f1565b6040516100f39190610ed2565b60405180910390f35b610104610314565b6040516101119190610efc565b60405180910390f35b610134600480360381019061012f9190610f17565b61032c565b6040516101419190610ed2565b60405180910390f35b61015261035b565b60405161015f9190610f86565b60405180910390f35b610182600480360381019061017d9190610fa1565b610364565b60405161018f9190610efc565b60405180910390f35b6101b260048036038101906101ad9190611103565b6103bb565b005b6101bc610482565b6040516101c99190610dad565b60405180910390f35b6101ec60048036038101906101e79190610e77565b610523565b6040516101f99190610ed2565b60405180910390f35b61021c600480360381019061021791906111e4565b610546565b6040516102299190610efc565b60405180910390f35b61023a6105db565b6040516102479190610dad565b60405180910390f35b6060600061025c610669565b905080600301805461026d90611253565b80601f016020809104026020016040519081016040528092919081815260200182805461029990611253565b80156102e65780601f106102bb576101008083540402835291602001916102e6565b820191906000526020600020905b8154815290600101906020018083116102c957829003601f168201915b505050505091505090565b6000806102fc610691565b9050610309818585610699565b600191505092915050565b60008061031f610669565b9050806002015491505090565b600080610337610691565b90506103448582856106ab565b61034f85858561073f565b60019150509392505050565b60006012905090565b60008061036f610669565b90508060000160008473ffffffffffffffffffffffffffffffffffffffff1673ffffffffffffffffffffffffffffffffffffffff16815260200190815260200160002054915050919050565b600082116103fe576040517f08c379a00000000000000000000000000000000000000000000000000000000081526004016103f5906112f6565b60405180910390fd5b80821015610441576040517f08c379a000000000000000000000000000000000000000000000000000000000815260040161043890611362565b60405180910390fd5b61044b8686610833565b836000908161045a919061152e565b506104653382610841565b61047a838284610475919061162f565b610841565b505050505050565b6060600061048e610669565b905080600401805461049f90611253565b80601f01602080910402602001604051908101604052809291908181526020018280546104cb90611253565b80156105185780601f106104ed57610100808354040283529160200191610518565b820191906000526020600020905b8154815290600101906020018083116104fb57829003601f168201915b505050505091505090565b60008061052e610691565b905061053b81858561073f565b600191505092915050565b600080610551610669565b90508060010160008573ffffffffffffffffffffffffffffffffffffffff1673ffffffffffffffffffffffffffffffffffffffff16815260200190815260200160002060008473ffffffffffffffffffffffffffffffffffffffff1673ffffffffffffffffffffffffffffffffffffffff1681526020019081526020016000205491505092915050565b600080546105e890611253565b80601f016020809104026020016040519081016040528092919081815260200182805461061490611253565b80156106615780601f1061063657610100808354040283529160200191610661565b820191906000526020600020905b81548152906001019060200180831161064457829003601f168201915b505050505081565b60007f52c63247e1f47db19d5ce0460030c497f067ca4cebf71ba98eeadabe20bace00905090565b600033905090565b6106a683838360016108c3565b505050565b60006106b78484610546565b90507fffffffffffffffffffffffffffffffffffffffffffffffffffffffffffffffff81146107395781811015610729578281836040517ffb8f41b200000000000000000000000000000000000000000000000000000000815260040161072093929190611672565b60405180910390fd5b610738848484840360006108c3565b5b50505050565b600073ffffffffffffffffffffffffffffffffffffffff168373ffffffffffffffffffffffffffffffffffffffff16036107b15760006040517f96c6fd1e0000000000000000000000000000000000000000000000000000000081526004016107a891906116a9565b60405180910390fd5b600073ffffffffffffffffffffffffffffffffffffffff168273ffffffffffffffffffffffffffffffffffffffff16036108235760006040517fec442f0500000000000000000000000000000000000000000000000000000000815260040161081a91906116a9565b60405180910390fd5b61082e838383610aa9565b505050565b61083d8282610ce8565b5050565b600073ffffffffffffffffffffffffffffffffffffffff168273ffffffffffffffffffffffffffffffffffffffff16036108b35760006040517fec442f050000000000000000000000000000000000000000000000000000000081526004016108aa91906116a9565b60405180910390fd5b6108bf60008383610aa9565b5050565b60006108cd610669565b9050600073ffffffffffffffffffffffffffffffffffffffff168573ffffffffffffffffffffffffffffffffffffffff16036109415760006040517fe602df0500000000000000000000000000000000000000000000000000000000815260040161093891906116a9565b60405180910390fd5b600073ffffffffffffffffffffffffffffffffffffffff168473ffffffffffffffffffffffffffffffffffffffff16036109b35760006040517f94280d620000000000000000000000000000000000000000000000000000000081526004016109aa91906116a9565b60405180910390fd5b828160010160008773ffffffffffffffffffffffffffffffffffffffff1673ffffffffffffffffffffffffffffffffffffffff16815260200190815260200160002060008673ffffffffffffffffffffffffffffffffffffffff1673ffffffffffffffffffffffffffffffffffffffff168152602001908152602001600020819055508115610aa2578373ffffffffffffffffffffffffffffffffffffffff168573ffffffffffffffffffffffffffffffffffffffff167f8c5be1e5ebec7d5bd14f71427d1e84f3dd0314c0f7b2291e5b200ac8c7c3b92585604051610a999190610efc565b60405180910390a35b5050505050565b6000610ab3610669565b9050600073ffffffffffffffffffffffffffffffffffffffff168473ffffffffffffffffffffffffffffffffffffffff1603610b095781816002016000828254610afd91906116c4565b92505081905550610be2565b60008160000160008673ffffffffffffffffffffffffffffffffffffffff1673ffffffffffffffffffffffffffffffffffffffff16815260200190815260200160002054905082811015610b98578481846040517fe450d38c000000000000000000000000000000000000000000000000000000008152600401610b8f93929190611672565b60405180910390fd5b8281038260000160008773ffffffffffffffffffffffffffffffffffffffff1673ffffffffffffffffffffffffffffffffffffffff16815260200190815260200160002081905550505b600073ffffffffffffffffffffffffffffffffffffffff168373ffffffffffffffffffffffffffffffffffffffff1603610c2d57818160020160008282540392505081905550610c7d565b818160000160008573ffffffffffffffffffffffffffffffffffffffff1673ffffffffffffffffffffffffffffffffffffffff168152602001908152602001600020600082825401925050819055505b8273ffffffffffffffffffffffffffffffffffffffff168473ffffffffffffffffffffffffffffffffffffffff167fddf252ad1be2c89b69c2b068fc378daa952ba7f163c4a11628f55a4df523b3ef84604051610cda9190610efc565b60405180910390a350505050565b6000610cf2610669565b905082816003019081610d05919061152e565b5081816004019081610d17919061152e565b50505050565b600081519050919050565b600082825260208201905092915050565b60005b83811015610d57578082015181840152602081019050610d3c565b60008484015250505050565b6000601f19601f8301169050919050565b6000610d7f82610d1d565b610d898185610d28565b9350610d99818560208601610d39565b610da281610d63565b840191505092915050565b60006020820190508181036000830152610dc78184610d74565b905092915050565b6000604051905090565b600080fd5b600080fd5b600073ffffffffffffffffffffffffffffffffffffffff82169050919050565b6000610e0e82610de3565b9050919050565b610e1e81610e03565b8114610e2957600080fd5b50565b600081359050610e3b81610e15565b92915050565b6000819050919050565b610e5481610e41565b8114610e5f57600080fd5b50565b600081359050610e7181610e4b565b92915050565b60008060408385031215610e8e57610e8d610dd9565b5b6000610e9c85828601610e2c565b9250506020610ead85828601610e62565b9150509250929050565b60008115159050919050565b610ecc81610eb7565b82525050565b6000602082019050610ee76000830184610ec3565b92915050565b610ef681610e41565b82525050565b6000602082019050610f116000830184610eed565b92915050565b600080600060608486031215610f3057610f2f610dd9565b5b6000610f3e86828701610e2c565b9350506020610f4f86828701610e2c565b9250506040610f6086828701610e62565b9150509250925092565b600060ff82169050919050565b610f8081610f6a565b82525050565b6000602082019050610f9b6000830184610f77565b92915050565b600060208284031215610fb757610fb6610dd9565b5b6000610fc584828501610e2c565b91505092915050565b600080fd5b600080fd5b7f4e487b7100000000000000000000000000000000000000000000000000000000600052604160045260246000fd5b61101082610d63565b810181811067ffffffffffffffff8211171561102f5761102e610fd8565b5b80604052505050565b6000611042610dcf565b905061104e8282611007565b919050565b600067ffffffffffffffff82111561106e5761106d610fd8565b5b61107782610d63565b9050602081019050919050565b82818337600083830152505050565b60006110a66110a184611053565b611038565b9050828152602081018484840111156110c2576110c1610fd3565b5b6110cd848285611084565b509392505050565b600082601f8301126110ea576110e9610fce565b5b81356110fa848260208601611093565b91505092915050565b60008060008060008060c087890312156111205761111f610dd9565b5b600087013567ffffffffffffffff81111561113e5761113d610dde565b5b61114a89828a016110d5565b965050602087013567ffffffffffffffff81111561116b5761116a610dde565b5b61117789828a016110d5565b955050604087013567ffffffffffffffff81111561119857611197610dde565b5b6111a489828a016110d5565b94505060606111b589828a01610e2c565b93505060806111c689828a01610e62565b92505060a06111d789828a01610e62565b9150509295509295509295565b600080604083850312156111fb576111fa610dd9565b5b600061120985828601610e2c565b925050602061121a85828601610e2c565b9150509250929050565b7f4e487b7100000000000000000000000000000000000000000000000000000000600052602260045260246000fd5b6000600282049050600182168061126b57607f821691505b60208210810361127e5761127d611224565b5b50919050565b7f496e697469616c20737570706c79206d7573742062652067726561746572207460008201527f68616e2030000000000000000000000000000000000000000000000000000000602082015250565b60006112e0602583610d28565b91506112eb82611284565b604082019050919050565b6000602082019050818103600083015261130f816112d3565b9050919050565b7f496e76616c696420696e697469616c20416d6f756e7421000000000000000000600082015250565b600061134c601783610d28565b915061135782611316565b602082019050919050565b6000602082019050818103600083015261137b8161133f565b9050919050565b60008190508160005260206000209050919050565b60006020601f8301049050919050565b600082821b905092915050565b6000600883026113e47fffffffffffffffffffffffffffffffffffffffffffffffffffffffffffffffff826113a7565b6113ee86836113a7565b95508019841693508086168417925050509392505050565b6000819050919050565b600061142b61142661142184610e41565b611406565b610e41565b9050919050565b6000819050919050565b61144583611410565b61145961145182611432565b8484546113b4565b825550505050565b600090565b61146e611461565b61147981848461143c565b505050565b5b8181101561149d57611492600082611466565b60018101905061147f565b5050565b601f8211156114e2576114b381611382565b6114bc84611397565b810160208510156114cb578190505b6114df6114d785611397565b83018261147e565b50505b505050565b600082821c905092915050565b6000611505600019846008026114e7565b1980831691505092915050565b600061151e83836114f4565b9150826002028217905092915050565b61153782610d1d565b67ffffffffffffffff8111156115505761154f610fd8565b5b61155a8254611253565b6115658282856114a1565b600060209050601f8311600181146115985760008415611586578287015190505b6115908582611512565b8655506115f8565b601f1984166115a686611382565b60005b828110156115ce578489015182556001820191506020850194506020810190506115a9565b868310156115eb57848901516115e7601f8916826114f4565b8355505b6001600288020188555050505b505050505050565b7f4e487b7100000000000000000000000000000000000000000000000000000000600052601160045260246000fd5b600061163a82610e41565b915061164583610e41565b925082820390508181111561165d5761165c611600565b5b92915050565b61166c81610e03565b82525050565b60006060820190506116876000830186611663565b6116946020830185610eed565b6116a16040830184610eed565b949350505050565b60006020820190506116be6000830184611663565b92915050565b60006116cf82610e41565b91506116da83610e41565b92508282019050808211156116f2576116f1611600565b5b9291505056fea2646970667358221220d62a2c6cc590fe936385d28ab99e16a87b95ffa0e46b455811328e30b9bb2cc764736f6c634300081c0033a264697066735822122049480a848deb57a92cc74d45c1f6b0d40bd7b376ce54aece88eec48d81e035b564736f6c634300081c0033",
  "linkReferences": {},
  "deployedLinkReferences": {}
}